{
    "_format": "hh-sol-artifact-1",
    "contractName": "NftMinterDapp",
    "sourceName": "contracts/NftMinterDapp.sol",
    "abi": [
        {
            "inputs": [],
            "stateMutability": "payable",
            "type": "constructor"
        },
        {
            "anonymous": false,
            "inputs": [
                {
                    "indexed": true,
                    "internalType": "address",
                    "name": "owner",
                    "type": "address"
                },
                {
                    "indexed": true,
                    "internalType": "address",
                    "name": "approved",
                    "type": "address"
                },
                {
                    "indexed": true,
                    "internalType": "uint256",
                    "name": "tokenId",
                    "type": "uint256"
                }
            ],
            "name": "Approval",
            "type": "event"
        },
        {
            "anonymous": false,
            "inputs": [
                {
                    "indexed": true,
                    "internalType": "address",
                    "name": "owner",
                    "type": "address"
                },
                {
                    "indexed": true,
                    "internalType": "address",
                    "name": "operator",
                    "type": "address"
                },
                {
                    "indexed": false,
                    "internalType": "bool",
                    "name": "approved",
                    "type": "bool"
                }
            ],
            "name": "ApprovalForAll",
            "type": "event"
        },
        {
            "anonymous": false,
            "inputs": [
                {
                    "indexed": true,
                    "internalType": "address",
                    "name": "previousOwner",
                    "type": "address"
                },
                {
                    "indexed": true,
                    "internalType": "address",
                    "name": "newOwner",
                    "type": "address"
                }
            ],
            "name": "OwnershipTransferred",
            "type": "event"
        },
        {
            "anonymous": false,
            "inputs": [
                {
                    "indexed": true,
                    "internalType": "address",
                    "name": "from",
                    "type": "address"
                },
                {
                    "indexed": true,
                    "internalType": "address",
                    "name": "to",
                    "type": "address"
                },
                {
                    "indexed": true,
                    "internalType": "uint256",
                    "name": "tokenId",
                    "type": "uint256"
                }
            ],
            "name": "Transfer",
            "type": "event"
        },
        {
            "inputs": [
                {
                    "internalType": "address",
                    "name": "to",
                    "type": "address"
                },
                {
                    "internalType": "uint256",
                    "name": "tokenId",
                    "type": "uint256"
                }
            ],
            "name": "approve",
            "outputs": [],
            "stateMutability": "nonpayable",
            "type": "function"
        },
        {
            "inputs": [
                {
                    "internalType": "address",
                    "name": "owner",
                    "type": "address"
                }
            ],
            "name": "balanceOf",
            "outputs": [
                {
                    "internalType": "uint256",
                    "name": "",
                    "type": "uint256"
                }
            ],
            "stateMutability": "view",
            "type": "function"
        },
        {
            "inputs": [
                {
                    "internalType": "uint256",
                    "name": "tokenId",
                    "type": "uint256"
                }
            ],
            "name": "getApproved",
            "outputs": [
                {
                    "internalType": "address",
                    "name": "",
                    "type": "address"
                }
            ],
            "stateMutability": "view",
            "type": "function"
        },
        {
            "inputs": [
                {
                    "internalType": "address",
                    "name": "owner",
                    "type": "address"
                },
                {
                    "internalType": "address",
                    "name": "operator",
                    "type": "address"
                }
            ],
            "name": "isApprovedForAll",
            "outputs": [
                {
                    "internalType": "bool",
                    "name": "",
                    "type": "bool"
                }
            ],
            "stateMutability": "view",
            "type": "function"
        },
        {
            "inputs": [],
            "name": "isPublicMintEnabled",
            "outputs": [
                {
                    "internalType": "bool",
                    "name": "",
                    "type": "bool"
                }
            ],
            "stateMutability": "view",
            "type": "function"
        },
        {
            "inputs": [],
            "name": "liquidityWallet",
            "outputs": [
                {
                    "internalType": "address payable",
                    "name": "",
                    "type": "address"
                }
            ],
            "stateMutability": "view",
            "type": "function"
        },
        {
            "inputs": [],
            "name": "maxSupply",
            "outputs": [
                {
                    "internalType": "uint256",
                    "name": "",
                    "type": "uint256"
                }
            ],
            "stateMutability": "view",
            "type": "function"
        },
        {
            "inputs": [],
            "name": "mint",
            "outputs": [],
            "stateMutability": "payable",
            "type": "function"
        },
        {
            "inputs": [],
            "name": "mintPrice",
            "outputs": [
                {
                    "internalType": "uint256",
                    "name": "",
                    "type": "uint256"
                }
            ],
            "stateMutability": "view",
            "type": "function"
        },
        {
            "inputs": [],
            "name": "name",
            "outputs": [
                {
                    "internalType": "string",
                    "name": "",
                    "type": "string"
                }
            ],
            "stateMutability": "view",
            "type": "function"
        },
        {
            "inputs": [],
            "name": "owner",
            "outputs": [
                {
                    "internalType": "address",
                    "name": "",
                    "type": "address"
                }
            ],
            "stateMutability": "view",
            "type": "function"
        },
        {
            "inputs": [],
            "name": "ownerAddress",
            "outputs": [
                {
                    "internalType": "address",
                    "name": "",
                    "type": "address"
                }
            ],
            "stateMutability": "view",
            "type": "function"
        },
        {
            "inputs": [
                {
                    "internalType": "uint256",
                    "name": "tokenId",
                    "type": "uint256"
                }
            ],
            "name": "ownerOf",
            "outputs": [
                {
                    "internalType": "address",
                    "name": "",
                    "type": "address"
                }
            ],
            "stateMutability": "view",
            "type": "function"
        },
        {
            "inputs": [],
            "name": "renounceOwnership",
            "outputs": [],
            "stateMutability": "nonpayable",
            "type": "function"
        },
        {
            "inputs": [
                {
                    "internalType": "address",
                    "name": "from",
                    "type": "address"
                },
                {
                    "internalType": "address",
                    "name": "to",
                    "type": "address"
                },
                {
                    "internalType": "uint256",
                    "name": "tokenId",
                    "type": "uint256"
                }
            ],
            "name": "safeTransferFrom",
            "outputs": [],
            "stateMutability": "nonpayable",
            "type": "function"
        },
        {
            "inputs": [
                {
                    "internalType": "address",
                    "name": "from",
                    "type": "address"
                },
                {
                    "internalType": "address",
                    "name": "to",
                    "type": "address"
                },
                {
                    "internalType": "uint256",
                    "name": "tokenId",
                    "type": "uint256"
                },
                {
                    "internalType": "bytes",
                    "name": "data",
                    "type": "bytes"
                }
            ],
            "name": "safeTransferFrom",
            "outputs": [],
            "stateMutability": "nonpayable",
            "type": "function"
        },
        {
            "inputs": [
                {
                    "internalType": "address",
                    "name": "operator",
                    "type": "address"
                },
                {
                    "internalType": "bool",
                    "name": "approved",
                    "type": "bool"
                }
            ],
            "name": "setApprovalForAll",
            "outputs": [],
            "stateMutability": "nonpayable",
            "type": "function"
        },
        {
            "inputs": [
                {
                    "internalType": "bool",
                    "name": "_isPublicMintEnabled",
                    "type": "bool"
                }
            ],
            "name": "setIsPublicMintEnabled",
            "outputs": [],
            "stateMutability": "nonpayable",
            "type": "function"
        },
        {
            "inputs": [
                {
                    "internalType": "bytes4",
                    "name": "interfaceId",
                    "type": "bytes4"
                }
            ],
            "name": "supportsInterface",
            "outputs": [
                {
                    "internalType": "bool",
                    "name": "",
                    "type": "bool"
                }
            ],
            "stateMutability": "view",
            "type": "function"
        },
        {
            "inputs": [],
            "name": "symbol",
            "outputs": [
                {
                    "internalType": "string",
                    "name": "",
                    "type": "string"
                }
            ],
            "stateMutability": "view",
            "type": "function"
        },
        {
            "inputs": [
                {
                    "internalType": "uint256",
                    "name": "tokenId",
                    "type": "uint256"
                }
            ],
            "name": "tokenURI",
            "outputs": [
                {
                    "internalType": "string",
                    "name": "",
                    "type": "string"
                }
            ],
            "stateMutability": "view",
            "type": "function"
        },
        {
            "inputs": [],
            "name": "totalSupply",
            "outputs": [
                {
                    "internalType": "uint256",
                    "name": "",
                    "type": "uint256"
                }
            ],
            "stateMutability": "view",
            "type": "function"
        },
        {
            "inputs": [
                {
                    "internalType": "address",
                    "name": "from",
                    "type": "address"
                },
                {
                    "internalType": "address",
                    "name": "to",
                    "type": "address"
                },
                {
                    "internalType": "uint256",
                    "name": "tokenId",
                    "type": "uint256"
                }
            ],
            "name": "transferFrom",
            "outputs": [],
            "stateMutability": "nonpayable",
            "type": "function"
        },
        {
            "inputs": [
                {
                    "internalType": "address",
                    "name": "newOwner",
                    "type": "address"
                }
            ],
            "name": "transferOwnership",
            "outputs": [],
            "stateMutability": "nonpayable",
            "type": "function"
        },
        {
            "inputs": [],
            "name": "treasuryWallet",
            "outputs": [
                {
                    "internalType": "address payable",
                    "name": "",
                    "type": "address"
                }
            ],
            "stateMutability": "view",
            "type": "function"
        },
        {
            "inputs": [
                {
                    "internalType": "address",
                    "name": "",
                    "type": "address"
                }
            ],
            "name": "walletMints",
            "outputs": [
                {
                    "internalType": "uint256",
                    "name": "",
                    "type": "uint256"
                }
            ],
            "stateMutability": "view",
            "type": "function"
        },
        {
            "inputs": [],
            "name": "withDrawTreasury",
            "outputs": [],
            "stateMutability": "nonpayable",
            "type": "function"
        },
        {
            "stateMutability": "payable",
            "type": "receive"
        }
    ],
    "bytecode": "0x60806040526040518060400160405280600d81526020017f4e66744d696e74657244617070000000000000000000000000000000000000008152506040518060400160405280600581526020017f4e46544d44000000000000000000000000000000000000000000000000000000815250816000908162000081919062000547565b50806001908162000093919062000547565b505050620000b6620000aa620001ff60201b60201c565b6200020760201b60201c565b662386f26fc1000060088190555060006009819055507fffffffffffffffffffffffffffffffffffffffffffffffffffffffffffffffff600a819055506001600b60006101000a81548160ff02191690831515021790555073b925775aba3209194da897dd545d346fee010a4e600b60016101000a81548173ffffffffffffffffffffffffffffffffffffffff021916908373ffffffffffffffffffffffffffffffffffffffff1602179055507327ab9102b4eeda76022fccf284461bba348a1f9c600c60006101000a81548173ffffffffffffffffffffffffffffffffffffffff021916908373ffffffffffffffffffffffffffffffffffffffff16021790555033600760006101000a81548173ffffffffffffffffffffffffffffffffffffffff021916908373ffffffffffffffffffffffffffffffffffffffff1602179055506200062e565b600033905090565b6000600660009054906101000a900473ffffffffffffffffffffffffffffffffffffffff16905081600660006101000a81548173ffffffffffffffffffffffffffffffffffffffff021916908373ffffffffffffffffffffffffffffffffffffffff1602179055508173ffffffffffffffffffffffffffffffffffffffff168173ffffffffffffffffffffffffffffffffffffffff167f8be0079c531659141344cd1fd0a4f28419497f9722a3daafe3b4186f6b6457e060405160405180910390a35050565b600081519050919050565b7f4e487b7100000000000000000000000000000000000000000000000000000000600052604160045260246000fd5b7f4e487b7100000000000000000000000000000000000000000000000000000000600052602260045260246000fd5b600060028204905060018216806200034f57607f821691505b60208210810362000365576200036462000307565b5b50919050565b60008190508160005260206000209050919050565b60006020601f8301049050919050565b600082821b905092915050565b600060088302620003cf7fffffffffffffffffffffffffffffffffffffffffffffffffffffffffffffffff8262000390565b620003db868362000390565b95508019841693508086168417925050509392505050565b6000819050919050565b6000819050919050565b600062000428620004226200041c84620003f3565b620003fd565b620003f3565b9050919050565b6000819050919050565b620004448362000407565b6200045c62000453826200042f565b8484546200039d565b825550505050565b600090565b6200047362000464565b6200048081848462000439565b505050565b5b81811015620004a8576200049c60008262000469565b60018101905062000486565b5050565b601f821115620004f757620004c1816200036b565b620004cc8462000380565b81016020851015620004dc578190505b620004f4620004eb8562000380565b83018262000485565b50505b505050565b600082821c905092915050565b60006200051c60001984600802620004fc565b1980831691505092915050565b600062000537838362000509565b9150826002028217905092915050565b6200055282620002cd565b67ffffffffffffffff8111156200056e576200056d620002d8565b5b6200057a825462000336565b62000587828285620004ac565b600060209050601f831160018114620005bf5760008415620005aa578287015190505b620005b6858262000529565b86555062000626565b601f198416620005cf866200036b565b60005b82811015620005f957848901518255600182019150602085019450602081019050620005d2565b8683101562000619578489015162000615601f89168262000509565b8355505b6001600288020188555050505b505050505050565b613614806200063e6000396000f3fe6080604052600436106101a05760003560e01c80636817c76c116100ec578063b88d4fde1161008a578063d5abeb0111610064578063d5abeb011461058e578063e985e9c5146105b9578063f0293fd3146105f6578063f2fde38b14610633576101a7565b8063b88d4fde146104fd578063c87b56dd14610526578063d469801614610563576101a7565b80638da5cb5b116100c65780638da5cb5b146104535780638f84aa091461047e57806395d89b41146104a9578063a22cb465146104d4576101a7565b80636817c76c146103d457806370a08231146103ff578063715018a61461043c576101a7565b80631249c58b1161015957806323b872dd1161013357806323b872dd1461031a57806342842e0e146103435780634626402b1461036c5780636352211e14610397576101a7565b80631249c58b146102bc57806318160ddd146102c65780632373ac22146102f1576101a7565b80630116bc2d146101ac57806301ffc9a7146101d757806306fdde0314610214578063081812fc1461023f578063095ea7b31461027c57806311660a5d146102a5576101a7565b366101a757005b600080fd5b3480156101b857600080fd5b506101c161065c565b6040516101ce9190612294565b60405180910390f35b3480156101e357600080fd5b506101fe60048036038101906101f9919061231b565b61066f565b60405161020b9190612294565b60405180910390f35b34801561022057600080fd5b50610229610751565b60405161023691906123d8565b60405180910390f35b34801561024b57600080fd5b5061026660048036038101906102619190612430565b6107e3565b604051610273919061249e565b60405180910390f35b34801561028857600080fd5b506102a3600480360381019061029e91906124e5565b610829565b005b3480156102b157600080fd5b506102ba610940565b005b6102c4610aaa565b005b3480156102d257600080fd5b506102db610e22565b6040516102e89190612534565b60405180910390f35b3480156102fd57600080fd5b506103186004803603810190610313919061257b565b610e28565b005b34801561032657600080fd5b50610341600480360381019061033c91906125a8565b610e4d565b005b34801561034f57600080fd5b5061036a600480360381019061036591906125a8565b610ead565b005b34801561037857600080fd5b50610381610ecd565b60405161038e919061261c565b60405180910390f35b3480156103a357600080fd5b506103be60048036038101906103b99190612430565b610ef3565b6040516103cb919061249e565b60405180910390f35b3480156103e057600080fd5b506103e9610f79565b6040516103f69190612534565b60405180910390f35b34801561040b57600080fd5b5061042660048036038101906104219190612637565b610f7f565b6040516104339190612534565b60405180910390f35b34801561044857600080fd5b50610451611036565b005b34801561045f57600080fd5b5061046861104a565b604051610475919061249e565b60405180910390f35b34801561048a57600080fd5b50610493611074565b6040516104a0919061249e565b60405180910390f35b3480156104b557600080fd5b506104be61109a565b6040516104cb91906123d8565b60405180910390f35b3480156104e057600080fd5b506104fb60048036038101906104f69190612664565b61112c565b005b34801561050957600080fd5b50610524600480360381019061051f91906127d9565b611142565b005b34801561053257600080fd5b5061054d60048036038101906105489190612430565b6111a4565b60405161055a91906123d8565b60405180910390f35b34801561056f57600080fd5b5061057861120c565b604051610585919061261c565b60405180910390f35b34801561059a57600080fd5b506105a3611232565b6040516105b09190612534565b60405180910390f35b3480156105c557600080fd5b506105e060048036038101906105db919061285c565b611238565b6040516105ed9190612294565b60405180910390f35b34801561060257600080fd5b5061061d60048036038101906106189190612637565b6112cc565b60405161062a9190612534565b60405180910390f35b34801561063f57600080fd5b5061065a60048036038101906106559190612637565b6112e4565b005b600b60009054906101000a900460ff1681565b60007f80ac58cd000000000000000000000000000000000000000000000000000000007bffffffffffffffffffffffffffffffffffffffffffffffffffffffff1916827bffffffffffffffffffffffffffffffffffffffffffffffffffffffff1916148061073a57507f5b5e139f000000000000000000000000000000000000000000000000000000007bffffffffffffffffffffffffffffffffffffffffffffffffffffffff1916827bffffffffffffffffffffffffffffffffffffffffffffffffffffffff1916145b8061074a575061074982611367565b5b9050919050565b606060008054610760906128cb565b80601f016020809104026020016040519081016040528092919081815260200182805461078c906128cb565b80156107d95780601f106107ae576101008083540402835291602001916107d9565b820191906000526020600020905b8154815290600101906020018083116107bc57829003601f168201915b5050505050905090565b60006107ee826113d1565b6004600083815260200190815260200160002060009054906101000a900473ffffffffffffffffffffffffffffffffffffffff169050919050565b600061083482610ef3565b90508073ffffffffffffffffffffffffffffffffffffffff168373ffffffffffffffffffffffffffffffffffffffff16036108a4576040517f08c379a000000000000000000000000000000000000000000000000000000000815260040161089b9061296e565b60405180910390fd5b8073ffffffffffffffffffffffffffffffffffffffff166108c361141c565b73ffffffffffffffffffffffffffffffffffffffff1614806108f257506108f1816108ec61141c565b611238565b5b610931576040517f08c379a000000000000000000000000000000000000000000000000000000000815260040161092890612a00565b60405180910390fd5b61093b8383611424565b505050565b6109486114dd565b600073ffffffffffffffffffffffffffffffffffffffff16600b60019054906101000a900473ffffffffffffffffffffffffffffffffffffffff1673ffffffffffffffffffffffffffffffffffffffff16036109d9576040517f08c379a00000000000000000000000000000000000000000000000000000000081526004016109d090612a6c565b60405180910390fd5b6000600b60019054906101000a900473ffffffffffffffffffffffffffffffffffffffff1673ffffffffffffffffffffffffffffffffffffffff1647604051610a2190612abd565b60006040518083038185875af1925050503d8060008114610a5e576040519150601f19603f3d011682016040523d82523d6000602084013e610a63565b606091505b5050905080610aa7576040517f08c379a0000000000000000000000000000000000000000000000000000000008152600401610a9e90612b1e565b60405180910390fd5b50565b600b60009054906101000a900460ff16610af9576040517f08c379a0000000000000000000000000000000000000000000000000000000008152600401610af090612b8a565b60405180910390fd5b600a546009541115610b40576040517f08c379a0000000000000000000000000000000000000000000000000000000008152600401610b3790612bf6565b60405180910390fd5b6008543414610b84576040517f08c379a0000000000000000000000000000000000000000000000000000000008152600401610b7b90612c62565b60405180910390fd5b6000600d60003373ffffffffffffffffffffffffffffffffffffffff1673ffffffffffffffffffffffffffffffffffffffff1681526020019081526020016000205414610c06576040517f08c379a0000000000000000000000000000000000000000000000000000000008152600401610bfd90612cce565b60405180910390fd5b60006001600954610c179190612d1d565b905060096000815480929190610c2c90612d51565b9190505550600a5460095403610c58576000600b60006101000a81548160ff0219169083151502179055505b610c62338261155b565b600d60003373ffffffffffffffffffffffffffffffffffffffff1673ffffffffffffffffffffffffffffffffffffffff1681526020019081526020016000206000815480929190610cb290612d51565b919050555060006064600634610cc89190612d99565b610cd29190612e0a565b905060006064600434610ce59190612d99565b610cef9190612e0a565b9050600b60019054906101000a900473ffffffffffffffffffffffffffffffffffffffff1673ffffffffffffffffffffffffffffffffffffffff166108fc839081150290604051600060405180830381858888f19350505050610d87576040517f08c379a0000000000000000000000000000000000000000000000000000000008152600401610d7e90612e87565b60405180910390fd5b600c60009054906101000a900473ffffffffffffffffffffffffffffffffffffffff1673ffffffffffffffffffffffffffffffffffffffff166108fc829081150290604051600060405180830381858888f19350505050610e1d576040517f08c379a0000000000000000000000000000000000000000000000000000000008152600401610e1490612ef3565b60405180910390fd5b505050565b60095481565b610e306114dd565b80600b60006101000a81548160ff02191690831515021790555050565b610e5e610e5861141c565b82611579565b610e9d576040517f08c379a0000000000000000000000000000000000000000000000000000000008152600401610e9490612f85565b60405180910390fd5b610ea883838361160e565b505050565b610ec883838360405180602001604052806000815250611142565b505050565b600b60019054906101000a900473ffffffffffffffffffffffffffffffffffffffff1681565b600080610eff83611907565b9050600073ffffffffffffffffffffffffffffffffffffffff168173ffffffffffffffffffffffffffffffffffffffff1603610f70576040517f08c379a0000000000000000000000000000000000000000000000000000000008152600401610f6790612ff1565b60405180910390fd5b80915050919050565b60085481565b60008073ffffffffffffffffffffffffffffffffffffffff168273ffffffffffffffffffffffffffffffffffffffff1603610fef576040517f08c379a0000000000000000000000000000000000000000000000000000000008152600401610fe690613083565b60405180910390fd5b600360008373ffffffffffffffffffffffffffffffffffffffff1673ffffffffffffffffffffffffffffffffffffffff168152602001908152602001600020549050919050565b61103e6114dd565b6110486000611944565b565b6000600660009054906101000a900473ffffffffffffffffffffffffffffffffffffffff16905090565b600760009054906101000a900473ffffffffffffffffffffffffffffffffffffffff1681565b6060600180546110a9906128cb565b80601f01602080910402602001604051908101604052809291908181526020018280546110d5906128cb565b80156111225780601f106110f757610100808354040283529160200191611122565b820191906000526020600020905b81548152906001019060200180831161110557829003601f168201915b5050505050905090565b61113e61113761141c565b8383611a0a565b5050565b61115361114d61141c565b83611579565b611192576040517f08c379a000000000000000000000000000000000000000000000000000000000815260040161118990612f85565b60405180910390fd5b61119e84848484611b76565b50505050565b60606111af826113d1565b60006111b9611bd2565b905060008151116111d95760405180602001604052806000815250611204565b806111e384611be9565b6040516020016111f49291906130df565b6040516020818303038152906040525b915050919050565b600c60009054906101000a900473ffffffffffffffffffffffffffffffffffffffff1681565b600a5481565b6000600560008473ffffffffffffffffffffffffffffffffffffffff1673ffffffffffffffffffffffffffffffffffffffff16815260200190815260200160002060008373ffffffffffffffffffffffffffffffffffffffff1673ffffffffffffffffffffffffffffffffffffffff16815260200190815260200160002060009054906101000a900460ff16905092915050565b600d6020528060005260406000206000915090505481565b6112ec6114dd565b600073ffffffffffffffffffffffffffffffffffffffff168173ffffffffffffffffffffffffffffffffffffffff160361135b576040517f08c379a000000000000000000000000000000000000000000000000000000000815260040161135290613175565b60405180910390fd5b61136481611944565b50565b60007f01ffc9a7000000000000000000000000000000000000000000000000000000007bffffffffffffffffffffffffffffffffffffffffffffffffffffffff1916827bffffffffffffffffffffffffffffffffffffffffffffffffffffffff1916149050919050565b6113da81611cb7565b611419576040517f08c379a000000000000000000000000000000000000000000000000000000000815260040161141090612ff1565b60405180910390fd5b50565b600033905090565b816004600083815260200190815260200160002060006101000a81548173ffffffffffffffffffffffffffffffffffffffff021916908373ffffffffffffffffffffffffffffffffffffffff160217905550808273ffffffffffffffffffffffffffffffffffffffff1661149783610ef3565b73ffffffffffffffffffffffffffffffffffffffff167f8c5be1e5ebec7d5bd14f71427d1e84f3dd0314c0f7b2291e5b200ac8c7c3b92560405160405180910390a45050565b6114e561141c565b73ffffffffffffffffffffffffffffffffffffffff1661150361104a565b73ffffffffffffffffffffffffffffffffffffffff1614611559576040517f08c379a0000000000000000000000000000000000000000000000000000000008152600401611550906131e1565b60405180910390fd5b565b611575828260405180602001604052806000815250611cf8565b5050565b60008061158583610ef3565b90508073ffffffffffffffffffffffffffffffffffffffff168473ffffffffffffffffffffffffffffffffffffffff1614806115c757506115c68185611238565b5b8061160557508373ffffffffffffffffffffffffffffffffffffffff166115ed846107e3565b73ffffffffffffffffffffffffffffffffffffffff16145b91505092915050565b8273ffffffffffffffffffffffffffffffffffffffff1661162e82610ef3565b73ffffffffffffffffffffffffffffffffffffffff1614611684576040517f08c379a000000000000000000000000000000000000000000000000000000000815260040161167b90613273565b60405180910390fd5b600073ffffffffffffffffffffffffffffffffffffffff168273ffffffffffffffffffffffffffffffffffffffff16036116f3576040517f08c379a00000000000000000000000000000000000000000000000000000000081526004016116ea90613305565b60405180910390fd5b6117008383836001611d53565b8273ffffffffffffffffffffffffffffffffffffffff1661172082610ef3565b73ffffffffffffffffffffffffffffffffffffffff1614611776576040517f08c379a000000000000000000000000000000000000000000000000000000000815260040161176d90613273565b60405180910390fd5b6004600082815260200190815260200160002060006101000a81549073ffffffffffffffffffffffffffffffffffffffff02191690556001600360008573ffffffffffffffffffffffffffffffffffffffff1673ffffffffffffffffffffffffffffffffffffffff168152602001908152602001600020600082825403925050819055506001600360008473ffffffffffffffffffffffffffffffffffffffff1673ffffffffffffffffffffffffffffffffffffffff16815260200190815260200160002060008282540192505081905550816002600083815260200190815260200160002060006101000a81548173ffffffffffffffffffffffffffffffffffffffff021916908373ffffffffffffffffffffffffffffffffffffffff160217905550808273ffffffffffffffffffffffffffffffffffffffff168473ffffffffffffffffffffffffffffffffffffffff167fddf252ad1be2c89b69c2b068fc378daa952ba7f163c4a11628f55a4df523b3ef60405160405180910390a46119028383836001611d59565b505050565b60006002600083815260200190815260200160002060009054906101000a900473ffffffffffffffffffffffffffffffffffffffff169050919050565b6000600660009054906101000a900473ffffffffffffffffffffffffffffffffffffffff16905081600660006101000a81548173ffffffffffffffffffffffffffffffffffffffff021916908373ffffffffffffffffffffffffffffffffffffffff1602179055508173ffffffffffffffffffffffffffffffffffffffff168173ffffffffffffffffffffffffffffffffffffffff167f8be0079c531659141344cd1fd0a4f28419497f9722a3daafe3b4186f6b6457e060405160405180910390a35050565b8173ffffffffffffffffffffffffffffffffffffffff168373ffffffffffffffffffffffffffffffffffffffff1603611a78576040517f08c379a0000000000000000000000000000000000000000000000000000000008152600401611a6f90613371565b60405180910390fd5b80600560008573ffffffffffffffffffffffffffffffffffffffff1673ffffffffffffffffffffffffffffffffffffffff16815260200190815260200160002060008473ffffffffffffffffffffffffffffffffffffffff1673ffffffffffffffffffffffffffffffffffffffff16815260200190815260200160002060006101000a81548160ff0219169083151502179055508173ffffffffffffffffffffffffffffffffffffffff168373ffffffffffffffffffffffffffffffffffffffff167f17307eab39ab6107e8899845ad3d59bd9653f200f220920489ca2b5937696c3183604051611b699190612294565b60405180910390a3505050565b611b8184848461160e565b611b8d84848484611d5f565b611bcc576040517f08c379a0000000000000000000000000000000000000000000000000000000008152600401611bc390613403565b60405180910390fd5b50505050565b606060405180602001604052806000815250905090565b606060006001611bf884611ee6565b01905060008167ffffffffffffffff811115611c1757611c166126ae565b5b6040519080825280601f01601f191660200182016040528015611c495781602001600182028036833780820191505090505b509050600082602001820190505b600115611cac578080600190039150507f3031323334353637383961626364656600000000000000000000000000000000600a86061a8153600a8581611ca057611c9f612ddb565b5b04945060008503611c57575b819350505050919050565b60008073ffffffffffffffffffffffffffffffffffffffff16611cd983611907565b73ffffffffffffffffffffffffffffffffffffffff1614159050919050565b611d028383612039565b611d0f6000848484611d5f565b611d4e576040517f08c379a0000000000000000000000000000000000000000000000000000000008152600401611d4590613403565b60405180910390fd5b505050565b50505050565b50505050565b6000611d808473ffffffffffffffffffffffffffffffffffffffff16612256565b15611ed9578373ffffffffffffffffffffffffffffffffffffffff1663150b7a02611da961141c565b8786866040518563ffffffff1660e01b8152600401611dcb9493929190613478565b6020604051808303816000875af1925050508015611e0757506040513d601f19601f82011682018060405250810190611e0491906134d9565b60015b611e89573d8060008114611e37576040519150601f19603f3d011682016040523d82523d6000602084013e611e3c565b606091505b506000815103611e81576040517f08c379a0000000000000000000000000000000000000000000000000000000008152600401611e7890613403565b60405180910390fd5b805181602001fd5b63150b7a0260e01b7bffffffffffffffffffffffffffffffffffffffffffffffffffffffff1916817bffffffffffffffffffffffffffffffffffffffffffffffffffffffff191614915050611ede565b600190505b949350505050565b600080600090507a184f03e93ff9f4daa797ed6e38ed64bf6a1f0100000000000000008310611f44577a184f03e93ff9f4daa797ed6e38ed64bf6a1f0100000000000000008381611f3a57611f39612ddb565b5b0492506040810190505b6d04ee2d6d415b85acef81000000008310611f81576d04ee2d6d415b85acef81000000008381611f7757611f76612ddb565b5b0492506020810190505b662386f26fc100008310611fb057662386f26fc100008381611fa657611fa5612ddb565b5b0492506010810190505b6305f5e1008310611fd9576305f5e1008381611fcf57611fce612ddb565b5b0492506008810190505b6127108310611ffe576127108381611ff457611ff3612ddb565b5b0492506004810190505b60648310612021576064838161201757612016612ddb565b5b0492506002810190505b600a8310612030576001810190505b80915050919050565b600073ffffffffffffffffffffffffffffffffffffffff168273ffffffffffffffffffffffffffffffffffffffff16036120a8576040517f08c379a000000000000000000000000000000000000000000000000000000000815260040161209f90613552565b60405180910390fd5b6120b181611cb7565b156120f1576040517f08c379a00000000000000000000000000000000000000000000000000000000081526004016120e8906135be565b60405180910390fd5b6120ff600083836001611d53565b61210881611cb7565b15612148576040517f08c379a000000000000000000000000000000000000000000000000000000000815260040161213f906135be565b60405180910390fd5b6001600360008473ffffffffffffffffffffffffffffffffffffffff1673ffffffffffffffffffffffffffffffffffffffff16815260200190815260200160002060008282540192505081905550816002600083815260200190815260200160002060006101000a81548173ffffffffffffffffffffffffffffffffffffffff021916908373ffffffffffffffffffffffffffffffffffffffff160217905550808273ffffffffffffffffffffffffffffffffffffffff16600073ffffffffffffffffffffffffffffffffffffffff167fddf252ad1be2c89b69c2b068fc378daa952ba7f163c4a11628f55a4df523b3ef60405160405180910390a4612252600083836001611d59565b5050565b6000808273ffffffffffffffffffffffffffffffffffffffff163b119050919050565b60008115159050919050565b61228e81612279565b82525050565b60006020820190506122a96000830184612285565b92915050565b6000604051905090565b600080fd5b600080fd5b60007fffffffff0000000000000000000000000000000000000000000000000000000082169050919050565b6122f8816122c3565b811461230357600080fd5b50565b600081359050612315816122ef565b92915050565b600060208284031215612331576123306122b9565b5b600061233f84828501612306565b91505092915050565b600081519050919050565b600082825260208201905092915050565b60005b83811015612382578082015181840152602081019050612367565b60008484015250505050565b6000601f19601f8301169050919050565b60006123aa82612348565b6123b48185612353565b93506123c4818560208601612364565b6123cd8161238e565b840191505092915050565b600060208201905081810360008301526123f2818461239f565b905092915050565b6000819050919050565b61240d816123fa565b811461241857600080fd5b50565b60008135905061242a81612404565b92915050565b600060208284031215612446576124456122b9565b5b60006124548482850161241b565b91505092915050565b600073ffffffffffffffffffffffffffffffffffffffff82169050919050565b60006124888261245d565b9050919050565b6124988161247d565b82525050565b60006020820190506124b3600083018461248f565b92915050565b6124c28161247d565b81146124cd57600080fd5b50565b6000813590506124df816124b9565b92915050565b600080604083850312156124fc576124fb6122b9565b5b600061250a858286016124d0565b925050602061251b8582860161241b565b9150509250929050565b61252e816123fa565b82525050565b60006020820190506125496000830184612525565b92915050565b61255881612279565b811461256357600080fd5b50565b6000813590506125758161254f565b92915050565b600060208284031215612591576125906122b9565b5b600061259f84828501612566565b91505092915050565b6000806000606084860312156125c1576125c06122b9565b5b60006125cf868287016124d0565b93505060206125e0868287016124d0565b92505060406125f18682870161241b565b9150509250925092565b60006126068261245d565b9050919050565b612616816125fb565b82525050565b6000602082019050612631600083018461260d565b92915050565b60006020828403121561264d5761264c6122b9565b5b600061265b848285016124d0565b91505092915050565b6000806040838503121561267b5761267a6122b9565b5b6000612689858286016124d0565b925050602061269a85828601612566565b9150509250929050565b600080fd5b600080fd5b7f4e487b7100000000000000000000000000000000000000000000000000000000600052604160045260246000fd5b6126e68261238e565b810181811067ffffffffffffffff82111715612705576127046126ae565b5b80604052505050565b60006127186122af565b905061272482826126dd565b919050565b600067ffffffffffffffff821115612744576127436126ae565b5b61274d8261238e565b9050602081019050919050565b82818337600083830152505050565b600061277c61277784612729565b61270e565b905082815260208101848484011115612798576127976126a9565b5b6127a384828561275a565b509392505050565b600082601f8301126127c0576127bf6126a4565b5b81356127d0848260208601612769565b91505092915050565b600080600080608085870312156127f3576127f26122b9565b5b6000612801878288016124d0565b9450506020612812878288016124d0565b93505060406128238782880161241b565b925050606085013567ffffffffffffffff811115612844576128436122be565b5b612850878288016127ab565b91505092959194509250565b60008060408385031215612873576128726122b9565b5b6000612881858286016124d0565b9250506020612892858286016124d0565b9150509250929050565b7f4e487b7100000000000000000000000000000000000000000000000000000000600052602260045260246000fd5b600060028204905060018216806128e357607f821691505b6020821081036128f6576128f561289c565b5b50919050565b7f4552433732313a20617070726f76616c20746f2063757272656e74206f776e6560008201527f7200000000000000000000000000000000000000000000000000000000000000602082015250565b6000612958602183612353565b9150612963826128fc565b604082019050919050565b600060208201905081810360008301526129878161294b565b9050919050565b7f4552433732313a20617070726f76652063616c6c6572206973206e6f7420746f60008201527f6b656e206f776e6572206f7220617070726f76656420666f7220616c6c000000602082015250565b60006129ea603d83612353565b91506129f58261298e565b604082019050919050565b60006020820190508181036000830152612a19816129dd565b9050919050565b7f54726561737572792077616c6c6574206e6f7420736574000000000000000000600082015250565b6000612a56601783612353565b9150612a6182612a20565b602082019050919050565b60006020820190508181036000830152612a8581612a49565b9050919050565b600081905092915050565b50565b6000612aa7600083612a8c565b9150612ab282612a97565b600082019050919050565b6000612ac882612a9a565b9150819050919050565b7f77697468447261775472656173757279206661696c6564000000000000000000600082015250565b6000612b08601783612353565b9150612b1382612ad2565b602082019050919050565b60006020820190508181036000830152612b3781612afb565b9050919050565b7f5075626c6963206d696e74206973206e6f7420656e61626c6564000000000000600082015250565b6000612b74601a83612353565b9150612b7f82612b3e565b602082019050919050565b60006020820190508181036000830152612ba381612b67565b9050919050565b7f4d617820737570706c7920726561636865640000000000000000000000000000600082015250565b6000612be0601283612353565b9150612beb82612baa565b602082019050919050565b60006020820190508181036000830152612c0f81612bd3565b9050919050565b7f496e636f72726563742070726963650000000000000000000000000000000000600082015250565b6000612c4c600f83612353565b9150612c5782612c16565b602082019050919050565b60006020820190508181036000830152612c7b81612c3f565b9050919050565b7f57616c6c6574206d696e74206c696d6974207265616368656400000000000000600082015250565b6000612cb8601983612353565b9150612cc382612c82565b602082019050919050565b60006020820190508181036000830152612ce781612cab565b9050919050565b7f4e487b7100000000000000000000000000000000000000000000000000000000600052601160045260246000fd5b6000612d28826123fa565b9150612d33836123fa565b9250828201905080821115612d4b57612d4a612cee565b5b92915050565b6000612d5c826123fa565b91507fffffffffffffffffffffffffffffffffffffffffffffffffffffffffffffffff8203612d8e57612d8d612cee565b5b600182019050919050565b6000612da4826123fa565b9150612daf836123fa565b9250828202612dbd816123fa565b91508282048414831517612dd457612dd3612cee565b5b5092915050565b7f4e487b7100000000000000000000000000000000000000000000000000000000600052601260045260246000fd5b6000612e15826123fa565b9150612e20836123fa565b925082612e3057612e2f612ddb565b5b828204905092915050565b7f5472656173757279207472616e73666572206661696c65640000000000000000600082015250565b6000612e71601883612353565b9150612e7c82612e3b565b602082019050919050565b60006020820190508181036000830152612ea081612e64565b9050919050565b7f4c6971756964697479207472616e73666572206661696c656400000000000000600082015250565b6000612edd601983612353565b9150612ee882612ea7565b602082019050919050565b60006020820190508181036000830152612f0c81612ed0565b9050919050565b7f4552433732313a2063616c6c6572206973206e6f7420746f6b656e206f776e6560008201527f72206f7220617070726f76656400000000000000000000000000000000000000602082015250565b6000612f6f602d83612353565b9150612f7a82612f13565b604082019050919050565b60006020820190508181036000830152612f9e81612f62565b9050919050565b7f4552433732313a20696e76616c696420746f6b656e2049440000000000000000600082015250565b6000612fdb601883612353565b9150612fe682612fa5565b602082019050919050565b6000602082019050818103600083015261300a81612fce565b9050919050565b7f4552433732313a2061646472657373207a65726f206973206e6f74206120766160008201527f6c6964206f776e65720000000000000000000000000000000000000000000000602082015250565b600061306d602983612353565b915061307882613011565b604082019050919050565b6000602082019050818103600083015261309c81613060565b9050919050565b600081905092915050565b60006130b982612348565b6130c381856130a3565b93506130d3818560208601612364565b80840191505092915050565b60006130eb82856130ae565b91506130f782846130ae565b91508190509392505050565b7f4f776e61626c653a206e6577206f776e657220697320746865207a65726f206160008201527f6464726573730000000000000000000000000000000000000000000000000000602082015250565b600061315f602683612353565b915061316a82613103565b604082019050919050565b6000602082019050818103600083015261318e81613152565b9050919050565b7f4f776e61626c653a2063616c6c6572206973206e6f7420746865206f776e6572600082015250565b60006131cb602083612353565b91506131d682613195565b602082019050919050565b600060208201905081810360008301526131fa816131be565b9050919050565b7f4552433732313a207472616e736665722066726f6d20696e636f72726563742060008201527f6f776e6572000000000000000000000000000000000000000000000000000000602082015250565b600061325d602583612353565b915061326882613201565b604082019050919050565b6000602082019050818103600083015261328c81613250565b9050919050565b7f4552433732313a207472616e7366657220746f20746865207a65726f2061646460008201527f7265737300000000000000000000000000000000000000000000000000000000602082015250565b60006132ef602483612353565b91506132fa82613293565b604082019050919050565b6000602082019050818103600083015261331e816132e2565b9050919050565b7f4552433732313a20617070726f766520746f2063616c6c657200000000000000600082015250565b600061335b601983612353565b915061336682613325565b602082019050919050565b6000602082019050818103600083015261338a8161334e565b9050919050565b7f4552433732313a207472616e7366657220746f206e6f6e20455243373231526560008201527f63656976657220696d706c656d656e7465720000000000000000000000000000602082015250565b60006133ed603283612353565b91506133f882613391565b604082019050919050565b6000602082019050818103600083015261341c816133e0565b9050919050565b600081519050919050565b600082825260208201905092915050565b600061344a82613423565b613454818561342e565b9350613464818560208601612364565b61346d8161238e565b840191505092915050565b600060808201905061348d600083018761248f565b61349a602083018661248f565b6134a76040830185612525565b81810360608301526134b9818461343f565b905095945050505050565b6000815190506134d3816122ef565b92915050565b6000602082840312156134ef576134ee6122b9565b5b60006134fd848285016134c4565b91505092915050565b7f4552433732313a206d696e7420746f20746865207a65726f2061646472657373600082015250565b600061353c602083612353565b915061354782613506565b602082019050919050565b6000602082019050818103600083015261356b8161352f565b9050919050565b7f4552433732313a20746f6b656e20616c7265616479206d696e74656400000000600082015250565b60006135a8601c83612353565b91506135b382613572565b602082019050919050565b600060208201905081810360008301526135d78161359b565b905091905056fea26469706673582212201617f2c1771d74f36c3562ee13b2dbf6633e4d67dff619a38665544f6222999664736f6c63430008120033",
    "linkReferences": {},
    "deployedLinkReferences": {}
}